{
  "contractName": "MyContract",
  "abi": [
    {
      "inputs": [
        {
          "internalType": "uint256",
          "name": "_interest",
          "type": "uint256"
        }
      ],
      "stateMutability": "nonpayable",
      "type": "constructor"
    },
    {
      "anonymous": false,
      "inputs": [
        {
          "indexed": false,
          "internalType": "address",
          "name": "depositor",
          "type": "address"
        },
        {
          "indexed": false,
          "internalType": "uint256",
          "name": "amount",
          "type": "uint256"
        }
      ],
      "name": "locked",
      "type": "event"
    },
    {
      "anonymous": false,
      "inputs": [
        {
          "indexed": false,
          "internalType": "address",
          "name": "withdrawer",
          "type": "address"
        },
        {
          "indexed": false,
          "internalType": "uint256",
          "name": "amount",
          "type": "uint256"
        }
      ],
      "name": "withdrawn",
      "type": "event"
    },
    {
      "inputs": [
        {
          "internalType": "address",
          "name": "",
          "type": "address"
        }
      ],
      "name": "balances",
      "outputs": [
        {
          "internalType": "uint256",
          "name": "amount",
          "type": "uint256"
        },
        {
          "internalType": "uint256",
          "name": "time",
          "type": "uint256"
        }
      ],
      "stateMutability": "view",
      "type": "function",
      "constant": true
    },
    {
      "inputs": [],
      "name": "interest",
      "outputs": [
        {
          "internalType": "uint256",
          "name": "",
          "type": "uint256"
        }
      ],
      "stateMutability": "view",
      "type": "function",
      "constant": true
    },
    {
      "inputs": [
        {
          "internalType": "uint256",
          "name": "_time",
          "type": "uint256"
        }
      ],
      "name": "deposit",
      "outputs": [],
      "stateMutability": "payable",
      "type": "function",
      "payable": true
    },
    {
      "inputs": [],
      "name": "withdraw",
      "outputs": [],
      "stateMutability": "nonpayable",
      "type": "function"
    }
  ],
  "bytecode": "0x608060405234801561001057600080fd5b506040516105503803806105508339818101604052602081101561003357600080fd5b810190808051906020019092919050505080600181905550506104f58061005b6000396000f3fe60806040526004361061003f5760003560e01c806327e235e3146100445780633ccfd60b146100b0578063b6b55f25146100c7578063c392f766146100f5575b600080fd5b34801561005057600080fd5b506100936004803603602081101561006757600080fd5b81019080803573ffffffffffffffffffffffffffffffffffffffff169060200190929190505050610120565b604051808381526020018281526020019250505060405180910390f35b3480156100bc57600080fd5b506100c5610144565b005b6100f3600480360360208110156100dd57600080fd5b81019080803590602001909291905050506102ce565b005b34801561010157600080fd5b5061010a6103cc565b6040518082815260200191505060405180910390f35b60006020528060005260406000206000915090508060000154908060010154905082565b600260009054906101000a900460ff16156101c7576040517f08c379a00000000000000000000000000000000000000000000000000000000081526004018080602001828103825260128152602001807f636f6e7472616374206973206c6f636b6564000000000000000000000000000081525060200191505060405180910390fd5b6001600260006101000a81548160ff021916908315150217905550600033905060006101f2826103d2565b905060008060003373ffffffffffffffffffffffffffffffffffffffff1673ffffffffffffffffffffffffffffffffffffffff1681526020019081526020016000206000018190555060008273ffffffffffffffffffffffffffffffffffffffff168260405180600001905060006040518083038185875af1925050503d806000811461029b576040519150601f19603f3d011682016040523d82523d6000602084013e6102a0565b606091505b50509050806102ae57600080fd5b5050506000600260006101000a81548160ff021916908315150217905550565b60003390506000349050346000808473ffffffffffffffffffffffffffffffffffffffff1673ffffffffffffffffffffffffffffffffffffffff168152602001908152602001600020600001600082825401925050819055506201518083026000808473ffffffffffffffffffffffffffffffffffffffff1673ffffffffffffffffffffffffffffffffffffffff168152602001908152602001600020600101819055507fbf7bab73294d483d6ae49c564c06db2e198ba8d717943c284369619392a8039d3334604051808373ffffffffffffffffffffffffffffffffffffffff1681526020018281526020019250505060405180910390a1505050565b60015481565b6000806000808473ffffffffffffffffffffffffffffffffffffffff1673ffffffffffffffffffffffffffffffffffffffff16815260200190815260200160002060010154600154026001019050806000808573ffffffffffffffffffffffffffffffffffffffff1673ffffffffffffffffffffffffffffffffffffffff1681526020019081526020016000206000016000828254029250508190555060008060008573ffffffffffffffffffffffffffffffffffffffff1673ffffffffffffffffffffffffffffffffffffffff168152602001908152602001600020600001549050809250505091905056fea264697066735822122070077ed68f3f17814adaa363ce51fbee3061f23b6f601f8cdaecb4bbc02c31ec64736f6c63430007060033",
  "immutableReferences": {},
  "source": "pragma solidity ^0.7.6;\r\ncontract MyContract{\r\n\tmapping(address => User) public balances;\r\n\tuint public interest;\r\n\tbool internal lock;\r\n    struct User{\r\n    \tuint amount;\r\n    \tuint time;\r\n    }\r\n\tevent locked( address depositor , uint amount);\r\n\tevent withdrawn(address withdrawer , uint amount);\r\n\tmodifier mutex(){\r\n        require(!lock , \"contract is locked\");\r\n        lock = true;\r\n       _;\r\n       lock= false;\r\n\t}\r\n\tconstructor(uint _interest ){\r\n\t\tinterest = _interest;\r\n\t}\r\n\tfunction deposit(uint _time) public payable {\r\n         address _depositor = msg.sender;\r\n         uint _amount = msg.value;\r\n         balances[_depositor].amount += msg.value;\r\n         balances[_depositor].time = _time * 1 days;\r\n         emit locked(msg.sender , msg.value);\r\n\t}\r\n\tfunction calculate(address depositor) internal returns (uint) {\r\n\t\tuint earned = 1 + interest*balances[depositor].time ;\r\n        balances[depositor].amount *= earned;\r\n        uint amount1 = balances[depositor].amount;\r\n        return amount1;\r\n        \r\n\r\n\t}\r\n\tfunction withdraw() public  mutex {\r\n\t     address payable withdrawer = msg.sender;\r\n\t\t uint money= calculate(withdrawer);\r\n\t\tbalances[msg.sender].amount = 0;\r\n       (bool success , ) = withdrawer.call{value : money}(\"\");\r\n       require(success);\r\n\t\r\n\t\t\r\n\r\n\t}\r\n\r\n}",
  "sourcePath": "C:/Users/DELL/try/contracts/MyContract.sol",
  "compiler": {
    "name": "solc",
    "version": "0.7.6+commit.7338295f.Emscripten.clang"
  },
  "schemaVersion": "3.3.4",
  "updatedAt": "2021-04-29T15:36:23.307Z",
  "networkType": "ethereum",
  "devdoc": {
    "kind": "dev",
    "methods": {},
    "version": 1
  },
  "userdoc": {
    "kind": "user",
    "methods": {},
    "version": 1
  }
}